:020000040000fa
:080000000001040000000000f3
:020000040000fa
:04000800ee100000f6
:020000040000fa
:04000c00561000008a
:020000040000fa
:040010007c10000060
:020000040000fa
:04001400a210000036
:020000040000fa
:04001800c81000000c
:020000040000fa
:04001c00ee100000e2
:020000040000fa
:04002000ee100000de
:020000040000fa
:04002400ee100000da
:020000040000fa
:04002800ee100000d6
:020000040000fa
:04002c00ee100000d2
:020000040000fa
:04003000ee100000ce
:020000040000fa
:04003400ee100000ca
:020000040000fa
:04003800ee100000c6
:020000040000fa
:04003c00ee100000c2
:020000040000fa
:04004000ee100000be
:020000040000fa
:040044004403000071
:020000040000fa
:04004800ee100000b6
:020000040000fa
:04004c00ee100000b2
:020000040000fa
:04005000ee100000ae
:020000040000fa
:04005400ee100000aa
:020000040000fa
:04005800ee100000a6
:020000040000fa
:04005c00ee100000a2
:020000040000fa
:04006000ee1000009e
:020000040000fa
:04006400ee1000009a
:020000040000fa
:04006800ee10000096
:020000040000fa
:04006c00ee10000092
:020000040000fa
:04007000ee1000008e
:020000040000fa
:04007400ee1000008a
:020000040000fa
:04007800ee10000086
:020000040000fa
:04007c00ee10000082
:020000040000fa
:040080007203000007
:020000040000fa
:04008400ee1000007a
:020000040000fa
:04008800ee10000076
:020000040000fa
:04008c00ee10000072
:020000040000fa
:04009000ee1000006e
:020000040000fa
:04009400ee1000006a
:020000040000fa
:04009800ee10000066
:020000040000fa
:04009c00ee10000062
:020000040000fa
:0400a000ee1000005e
:020000040000fa
:0400a400ee1000005a
:020000040000fa
:0400a800ee10000056
:020000040000fa
:0400ac00ee10000052
:020000040000fa
:0400b000ee1000004e
:020000040000fa
:0400b400ee1000004a
:020000040000fa
:0400b800ee10000046
:020000040000fa
:0400bc00ee10000042
:020000040000fa
:0400c000ee1000003e
:020000040000fa
:0400c400c80100006f
:020000040000fa
:0400c800ee10000036
:020000040000fa
:0400cc00ee10000032
:020000040000fa
:0400d000ee1000002e
:020000040000fa
:0400d400ee1000002a
:020000040000fa
:0400d800ee10000026
:020000040000fa
:04010800ee100000f5
:020000040000fa
:04010c00ee100000f1
:020000040000fa
:04011000ee100000ed
:020000040000fa
:04011400ee100000e9
:020000040000fa
:04011800ee100000e5
:020000040000fa
:04011c00ee100000e1
:020000040000fa
:04012000ee100000dd
:020000040000fa
:04012400ee100000d9
:020000040000fa
:04012800ee100000d5
:020000040000fa
:04012c00ee100000d1
:020000040000fa
:04013000ee100000cd
:020000040000fa
:04013400ee100000c9
:020000040000fa
:04013800ee100000c5
:020000040000fa
:04013c00ee100000c1
:020000040000fa
:04014000ee100000bd
:020000040000fa
:04014400ee100000b9
:020000040000fa
:04014800ee100000b5
:020000040000fa
:04014c00ee100000b1
:020000040000fa
:04015000ee100000ad
:020000040000fa
:04015400ee100000a9
:020000040000fa
:04015800ee100000a5
:020000040000fa
:04015c00ee100000a1
:020000040000fa
:04016000ee1000009d
:020000040000fa
:04016400ee10000099
:020000040000fa
:04016800ee10000095
:020000040000fa
:04016c00ee10000091
:020000040000fa
:04017000ee1000008d
:020000040000fa
:04017400ee10000089
:020000040000fa
:04017800ee10000085
:020000040000fa
:04017c00ee10000081
:020000040000fa
:04018000ee1000007d
:020000040000fa
:04018400ee10000079
:020000040000fa
:04018800ee10000075
:020000040000fa
:04018c00ee10000071
:020000040000fa
:04019000ee1000006d
:020000040000fa
:04019400ee10000069
:020000040000fa
:04019800ee10000065
:020000040000fa
:04019c00ee10000061
:020000040000fa
:0401a000ee1000005d
:020000040000fa
:0401a400ee10000059
:020000040000fa
:0401a800ee10000055
:020000040000fa
:0401ac00ee10000051
:020000040000fa
:0401b000ee1000004d
:020000040000fa
:0401b400ee10000049
:020000040000fa
:0401b800ee10000045
:020000040000fa
:0401bc00ee10000041
:020000040000fa
:0401c000ee1000003d
:020000040000fa
:0401c400ee10000039
:020000040000fa
:0401c800ee10000035
:020000040000fa
:0401cc00ee10000031
:020000040000fa
:0401d000ee1000002d
:020000040000fa
:0401d400ee10000029
:020000040000fa
:0401d800ee10000025
:020000040000fa
:10020000ef9e2000aefe20000e01880000000000de
:10021000000020000000e000020032000001200089
:1002200020028800140007004f0807000000e000cb
:1002300003003a0000c02100010020000200370046
:100240000000200001002000810f7000010032003a
:1002500014000700000020000000e000020032004f
:1002600000000200000000009a03020000000000ed
:100270000040da000000fe004440a900a02d20004c
:100280000000e0000300320000002000a001880010
:100290004440a800000006008a1f78008b1f7800e9
:1002a0000000060091018800800478000000eb0047
:1002b0001a003700e284440032a0b4009905ba0065
:1002c000e284440032a0b4009906ba00e2844400fb
:1002d00032a0b4000006eb00476fde00fd07b2005d
:1002e000636ce10003003a00ebff07000000eb0045
:1002f0000a003700606ce10004003a00005deb008a
:100300008b05e900fdff3e00040037006168e10055
:10031000010032000086eb000b00070019c7ba008d
:100320001905ba000e04e00003003a000a00e000dc
:10033000e0ff3a0000000600fe07b2009e018800c0
:100340008a047800f5ff3700395dba008b05e900b3
:100350000c003200295dba008b05e900080032006c
:100360000c00e00003003a00e284440032a0b40034
:10037000f5ff370019ddba008b05e900faff3a00f6
:100380008904e800e184440032a0b40000000600c3
:100390003600f800809fbe00829fbe00849fbe0092
:1003a000869fbe000000fa0088e0a900e0408000bf
:1003b0000000e800e0408800e140800000082000e4
:1003c000808f500039003a001c28ef00e0168000b2
:1003d000004078006140600000c0ea0061406000b9
:1003e0000080fb0061006000e11680000100a100b8
:1003f00001007000e01688000040eb006202070078
:100400000041880010418000e6004000004180006b
:10041000808f50000500390010418000e600500038
:1004200000418000808f50000c003600eac9bf00f8
:10043000e14f500003003a0000418000404f880027
:1004400004003700004180002041880020418000e6
:10045000b04d88000041800010418800eac9bf000b
:10046000e14f50000e003a00204180000000e800fb
:100470002041880020418000b04d8800214180004b
:10048000404f8000808f500005003600ea69ef0081
:10049000404f80002041880020418000b04d8800fe
:1004a000404180000000e80040418800e1408000b9
:1004b0006000200000017800110009008280d8004f
:1004c0008000fd000000e0001d003a0010c0b300f5
:1004d0002d0207000041880000418000a04d8800e7
:1004e000e09a200067070700904d800080007800a8
:1004f00020418000008040008000eb00a04c88007c
:10050000b14c8800a24c8000b34c80000040200019
:1005100001002000800f5100818f59000800360033
:100520000040200001002000a04c8800b14c880051
:10053000204180000140200000805000904d880044
:10054000e04080000000e800f0408800f1408000ba
:1005500000082000808f500001003a001e28ef00a4
:10056000f040800080004000609229000080400040
:10057000100078006101b800a04c8000b14c8000f0
:10058000009ab90004027800028bb9008602780054
:10059000050242000010b800010242008400780009
:1005a0004609dd004a00de0000007100ca08de00d6
:1005b000804c8800914c8800b01680006400600078
:1005c0000000e00002003200d621ef0004003700f6
:1005d000804c8000914c800000007800b00e8800b4
:1005e000e1408000a0002000000178001100090017
:1005f0008280d8008000fd000000e00011003a0079
:10060000eac9bf00e14f500002003a00430307006f
:100610000a003700304180000000e80030418800c7
:100620003141800000502000808f500002003600d1
:100630000103070001003700380307005e030700cd
:10064000b1030700e1408000f0032000008060005b
:100650000000e00005003a00f303070079030700fb
:10066000c603070034040700480407000080fa00ae
:100670004f03be004f02be004f01be004f00be0040
:100680003600f90000400600801f78003400f800b2
:1006900000002000a00188000000fa0084e0a9000a
:1006a000004f8000e10f500006003a00d642a8003b
:1006b000d621ef008c00a9008c00a90013e1a9004d
:1006c000e029ef000a21ef00004f80000000e80061
:1006d000004f88000080fa003400f9004f007800d5
:1006e00000400600801f78003400f8000000200061
:1006f000a00188000000fa0086c0a900f04e80002a
:10070000e40f500003003a00d662a80021e1a900de
:10071000de29ef001821ef00f04e80000000e80015
:10072000f04e88000080fa003400f9004f00780095
:10073000004006000400fa000040eb00004f780083
:10074000800107003302070046020700730207001a
:1007500084020700a6020700940207003c0107007c
:1007600044060700000a2000404c8800300a2000a0
:10077000504c8800000f2000604c8800802520002d
:10078000704c880060a22900100798001e0190009c
:100790008040eb0010c0b300de000700a969ef0045
:1007a000a869ef00007122000d040700209e2000c0
:1007b000704d8800a0ff2000804d8800e09a200046
:1007c000cc06070090992500c04d8800d0cc2000b1
:1007d000d04d880050b82000e04d8800e19a2000fc
:1007e000809b2000ce060700b629ef00d621ef003f
:1007f000d642a90090e0a8008ce0a8008ec0a80016
:100800000100370000000000b016800064006000a6
:100810000000e00004003a00b016800068006000ac
:100820000000e0000200320010002000010037004c
:100830000000eb0000407800aae9b70060952000b6
:100840000104070040408800514088007116800074
:1008500000002400008060000000e000240032005e
:10086000aac9bf000004e00021003a001e40780041
:10087000e14f500006003a0072a329008040eb00cf
:1008800020c0b300a30007000040eb00004f780039
:10089000414180004006200000017800110009005d
:1008a0008280d8008000fd000000e0000e003a00c9
:1008b000a8c9bf000a04070041418000803e200013
:1008c000808f5000080036002828ef00a8c9bf001c
:1008d0000040e800a8e9b700a8c9bf00e64f5000f3
:1008e00001003400a869ef00ab69ef001400370085
:1008f000aac9bf000004e00009003200abc9bf0074
:100900000004e00006003a0040c1b300a9e9b700c6
:1009100010c0b300abe9b70010c0b300004f7800bf
:10092000a9c9bf008000fb00200020000001780062
:10093000110009008200d80000407800e803070099
:100940002104800000002800008060000000e0001a
:10095000acff3200a9c9bf000040e800a9e9b70018
:1009600072a329008040eb0020c0b300690007009b
:10097000aac9bf000004e0000c003200a9c9bf00f2
:10098000f54f500001003400a969ef00a9c9bf006c
:10099000ee4f500009003a0040c1b300a9e9b7008a
:1009a00010c0b3007e00070004003700a9c9bf00d3
:1009b000ed4f500001003400a969ef0085e0a90067
:1009c0007016800090ff37000400fa00204798005e
:1009d0000040eb00004f7800dca2a800ae40900081
:1009e000014f78001e00fb004480de00004f7800bd
:1009f0009e4078006fcf600011178000000f20002c
:100a000000806000101788009e00fb001017800017
:100a10000100700010178800dc82a8002000200070
:100a20006f030700dc82a900ae409000014f780000
:100a30009e4078006fcf600011178000000f2000eb
:100a400000806000101788009e00fb0010178000d7
:100a50000100700010178800dc82a8002000200030
:100a60005f030700dc82a9000080fa000000060096
:100a70000600fa0020479800314798004247980046
:100a80000040eb00004f78002e409000e14f5000f6
:100a900003003a0000c8b300004f7800020037009e
:100aa00000ccb300004f78009e4078003e4090009c
:100ab00000c04000004f78001e407800380007005a
:100ac0004e409000c0ff07000080fa0000000600c2
:100ad0000400fa00100798000000eb00000f7800f7
:100ae000050037001e0090001e00400010407800f6
:100af000b5ff07001e0fe8001e0090001e0040001a
:100b0000104078000004e000f6ff3a000080fa0090
:100b1000000006000800fa0040479800514798007e
:100b2000320798000000eb00000f78000040eb0057
:100b3000204798004e409000e14f500003003a00db
:100b400000c8b300204798000200370000ccb30073
:100b5000204798005e409000ae40900000c04000ea
:100b6000204798002e4090000d0007000500370038
:100b70003e0090001e0040001040780092ff0700e9
:100b80001e0fe8003e0090001e004000104078005c
:100b90000004e000f6ff3a000080fa0000000600c2
:100ba0000400fa00204798000040eb00004f780056
:100bb000dca2a900ae409000014f780000cfb30046
:100bc0001e4f60001e80fb004400de00004f7800d6
:100bd0009e4078006fcf600011178000000f20004a
:100be00000806000101788009e80fb0010178000b6
:100bf0000100700010178800dc82a800200020008f
:100c0000f7020700dc82a900ae409000014f780097
:100c10009e4078006fcf600011178000000f200009
:100c200000806000101788009e80fb001017800075
:100c30000100700010178800dc82a800200020004e
:100c4000e7020700dc82a9000080fa00000006002d
:100c50000000fa00c0002000e10207001017800029
:100c60003000b30010178800dc82a80020002000ac
:100c7000db020700dc82a90020002000d802070068
:100c8000dc82a80020002000d5020700dc82a90039
:100c900020002000d2020700dc82a80020002000f3
:100ca000cf020700dc82a90020002000cc02070050
:100cb00011178000000f20000080600010178800ce
:100cc000101780000010a00010178800dc82a80018
:100cd00020002000c2020700dc82a90080c2b3000d
:100ce000afff070020002000bd020700e0c0b300f6
:100cf000abff070020002000b902070010c0b300be
:100d0000a7ff070020002000b502070060c0b30065
:100d1000a3ff070020002000b102070000c8b300b5
:100d20009fff070020002000ad02070020002000e8
:100d3000ab020700e0c0b30099ff07000080fa0093
:100d4000000006000000fa00f0ff200030168800c6
:100d5000d822ef00d842a900de22ef00d222ef0015
:100d6000cc22ef00cda2a800cdc2a800e222ef0065
:100d7000d642a800ca22ef00d022ef00d622ef0010
:100d80000080fa00000006000200fa00004f780020
:100d90001e00fb0030158800a022a8000000000003
:100da00000158000610060000000e000fcff3200e0
:100db000001480000080fa00000006000a00fa001b
:100dc00030079800410798000000eb00000f780002
:100dd0004e0090000000e90010079800180037004e
:100de0001e007800be009000008040001040780097
:100df0000000fb00200798001e007800be00900055
:100e0000008040009e0090003e0190008100410063
:100e100091407800014878001e009000be009000cc
:100e200000804000ae0090008140780001487800ca
:100e30001e0fe8001e0090000000e9001007980057
:100e40001e0090009e007800808f5000e4ff350067
:100e50000080fa00000006000a00fa00100798005f
:100e600021079800320798000000eb00000f78007f
:100e7000140037001e007800ae0090008080400013
:100e8000410798001e019000a10020008101780018
:100e9000110009000301d800814078000143b0002f
:100ea0004e009000014878001e0fe8009e00900060
:100eb000a000200000017800110009008200d80085
:100ec000100798001e0090000000e000e9ff3a00c3
:100ed000060037001e007800ae0090000080400041
:100ee00001c3b300014878001e0fe8003e009000e7
:100ef0009e007800808f5000f6ff35009e0078003d
:100f00002e009000adff07001e007800ae0090009c
:100f1000008040008040eb00014878001e0078000f
:100f20000080fa00000006001000fa00881f780018
:100f300040079800510798006207980073079800cf
:100f40004e009000de009000aa050700000f780018
:100f50001e007800cf80de00e20507000001be0021
:100f60004e009000de00900000050700100798007a
:100f7000210798000001eb00ee0090001e007800b1
:100f8000b5ff0700300798007e0090000000e000e9
:100f90001d0032003e009000ee00900000804000f6
:100fa000e1c2b300014878007e009000cf80de00ef
:100fb000cc0507000001be00000020000112240043
:100fc000540607000001be001e009000ae00900015
:100fd0001c06070010079800210798003e009000ab
:100fe0000000e800ee009000008440001e00900029
:100ff000ae0090007f050700000078007e019000a1
:101000008800780094ff07004f0478000080fa0001
:10101000000006000000fa008020ef008220ef00b0
:1010200088e0a90090e0a90000002200000e8800de
:10103000f08f2000200e880000f12000400e880074
:10104000ca21ef00d621ef00c1e1a80031058000e0
:101050000000270001007000300588000080fa00c1
:10106000000006000000fa0000e02f004015880094
:1010700011158000f0ff210000806000101588002d
:101080002115800000fc2f00008060009000b3005c
:101090002015880011158000f0cf2f00008060001f
:1010a00010158800a062a800aa22ef00a622ef0077
:1010b00001158000000e200001007000001588005e
:1010c000a042a900a002a900a1e2a900a022a800b4
:1010d00021158000f00f2e00008060000080a0002d
:1010e0002015880001158000f0cf2f0000806000df
:1010f00000158800a2e2a9001115800030fc2f0025
:101100000080600010158800a222a900a202a90098
:10111000a1e2a8000080fa00000006000000fa002a
:1011200011e1a9001021ef00b1048000f08f2f0021
:10113000808060000030200001007000b004880052
:101140000621ef001081a90010a1a900203327007b
:101150006008880084c0a9008cc0a9000080fa0043
:10116000000006000000fa0013e1a9001221ef00c0
:10117000b1048000f0ff280080806000000025009e
:1011800001007000b00488000a21ef001281a8005d
:1011900012a1a8000080eb007008880084e0a9007c
:1011a0008ce0a9000080fa00000006000000fa00b0
:1011b00021e1a9002021ef00f1048000f08f2f0031
:1011c0000080600000a0a000f00488001821ef005b
:1011d0002081a80020a1a8000080eb00e008880082
:1011e00086c0a9008ec0a9000080fa000000060099
:1011f0000000fa001fe1a9001e21ef00f1048000a9
:10120000f0f82f00808060000006200001007000d0
:10121000f00488001421ef001e81a9001ea1a9007e
:1012200090992300d008880086a0a9008ea0a9006c
:101230000080fa00000006000000fa0020c0b300a1
:10124000d1fe0700d04e8800e04e8000d14e8000d5
:1012500000014000a0822000000041000108780049
:10126000e04e80000000e800e04e8800e04e800084
:10127000f80f500003003a00dc29ef0010c0b30063
:10128000a1e9b700d14e800060242000808f50007b
:101290000400360010c0b30098e9b700e282a8004d
:1012a0000a003700d14e8000d0212000808f5000ee
:1012b00006003e009869ef00b016800064006000f0
:1012c0000000e00001003a00e282a900d14e800057
:1012d000c01b2000808f500004003e0010c0b300ef
:1012e00099e9b700e2a2a8000a003700d14e8000b9
:1012f000201c2000808f5000060036009969ef0006
:10130000b0168000640060000000e00001003a00b8
:10131000e2a2a9000080fa00000006000000fa0026
:1013200020c0b30098fe0700b04e8800c04e800079
:10133000b14e800000014000a0822000000041006a
:1013400001087800c04e80000000e800c04e880010
:10135000c04e8000f80f500003003a00d829ef007b
:1013600010c0b300a1e9b700b14e80006024200096
:10137000808f50000400360010c0b30098e9b70019
:10138000e282a8000a003700b14e8000d021200080
:10139000808f500006003e009869ef00b016800074
:1013a000640060000000e00001003a00e282a90051
:1013b0000080fa00000006000000fa0030c0b30010
:1013c00071fe0700904e8800a04e8000914e800074
:1013d00000014000c08520000000410001087800a5
:1013e000a04e80000000e800a04e8800a04e8000c3
:1013f000f80f500003003a00d429ef0010c0b300ea
:10140000a2e9b700914e8000704c8000808f5000a0
:101410000400360010c0b3009ae9b700e2c2a80089
:1014200006003700b0168000640060000000e00095
:1014300002003a00e2c2a9009a69ef000080fa00b7
:10144000000006000000fa0040c0b3004efe070096
:10145000704e8800804e8000714e80000001400078
:10146000e08820000000410001087800804e8000e4
:101470000000e800804e8800804e8000f80f500089
:1014800003003a00d029ef0010c0b300a3e9b70071
:10149000714e8000e0262000808f5000040036004e
:1014a00010c0b3009de9b700dd02a80006003700b8
:1014b000714e800060242000808f500002003e00aa
:1014c000dd02a9009d69ef00714e8000901620009a
:1014d000808f500004003e0010c0b3009ee9b700aa
:1014e000d622a80006003700714e80005018200058
:1014f000808f5000020036009e69ef00d622a900be
:101500000080fa00000006000000fa0050c0b3009e
:101510001dfe0700504e8800604e8000514e800036
:1015200000014000008c200000004100010878000c
:10153000604e80000000e800604e8800604e800031
:10154000f80f500003003a00cc29ef0010c0b300a0
:10155000a4e9b700514e800000202000808f500089
:101560000300360010c0b3009fe9b7000100370048
:101570009f69ef000080fa00000006000000fa00fa
:101580009dc9bf00e14f5000060032009ec9bf0058
:10159000e14f5000030032009fc9bf00e14f5000ef
:1015a00002003a0021e1a8000200370021e1a90071
:1015b000d662a9000080fa00000006000000fa00d0
:1015c00098c9bf000004e00009003a0099c9bf00b3
:1015d0000004e00006003a009ac9bf000004e000e1
:1015e00003003a009bc9bf000004e0000200320083
:1015f00013e1a8000100370013e1a900acc9bf0046
:10160000614060000080fb00610060004200dd007e
:10161000e11680000120a10001007000e0168800a2
:101620000080fa00000006000000fa00881f780021
:1016300060c0b300d4fd0700304e8800404e8000eb
:10164000314e800000014000609520000000410004
:1016500001087800404e80000000e800404e8800fd
:10166000404e8000f90f500003003a00c829ef00f7
:1016700010c0b300a5e9b700504c80008000eb001b
:101680001b0407000002be00404080005140800063
:1016900018c0b3000001be000400be00d303070061
:1016a0000000e00001003c000044eb000804e00002
:1016b0000300320010c0b300ace9b70001003700ee
:1016c000ac69ef00404c80008000eb00080407008c
:1016d0000002be00404080005140800018c0b300ae
:1016e0000001be000400be00c00307000000e000cf
:1016f00001003c000044eb000804e000050032005b
:10170000ac69ef0010c0b3009be9b700d602a80097
:1017100006003700b0168000640060000000e000a2
:1017200002003a009b69ef00d602a9004f0478003e
:101730000080fa00000006000000fa0070c0b3004c
:1017400091fd0700104e8800204e8000114e800051
:1017500000014000208f20000000410001087800b7
:10176000204e80000000e800204e8800204e8000bf
:10177000f80f500003003a00c429ef0010c0b30076
:10178000a6e9b7000080fa00000006000000fa0099
:1017900080c0b3007cfd0700f04d8800004e800043
:1017a000f14d800000014000409220000000410007
:1017b00001087800004e80000000e800004e88001c
:1017c000004e8000f80f500003003a00c029ef00df
:1017d00010c0b300a7e9b7000080fa0000000600bf
:1017e0000600fa00200798000000eb00000f7800c8
:1017f0000000eb00100798000000eb0010079800b5
:101800000b0037000000eb00000f780001003700ec
:101810001e0fe8002e0090009e007800808f500080
:10182000fbff36001e0090000000e8001007980043
:101830009e009000703e2000808f5000f1ff360027
:101840000080fa00000006000800fa003007980047
:101850000040eb00004f78006000b80010079800cf
:10186000210798000040eb00004f78000e00370081
:101870001e80fb0000004000be0090000080400081
:10188000100078008000eb00990307000001be0003
:101890001e009000ae009000b502070010079800ef
:1018a000210798001e4fe8001e407800f84f5000b6
:1018b000efff360002002000831c24001e00900071
:1018c000ae0090000703070010079800210798005a
:1018d0001e009000ae0090000080fa00000006009c
:1018e0001400fa00205798006000b800008fbe0076
:1018f0006000b80020079800310798006000b80029
:1019000040079800510798002e5090000080fb007f
:10191000cf80de00a200200003002000820f5000d4
:10192000838f5800d1013e00006001000a0037009b
:10193000310037005800370020013700a60037007b
:10194000ce003700f50037007b0037002601370056
:101950005501370074013700a1c9bf000004e00041
:1019600005003200a0822000b7ff070080408800f9
:1019700091408800a169ef0060a4290060079800e9
:101980006e0190008040eb0010c0b30061fc0700c6
:10199000804080009140800022432e0083ee23008f
:1019a000a803070034030700000078008000eb0064
:1019b0004f030700008fbe001e00be000d0307008e
:1019c00000007800ee0047003200200022fd0700f2
:1019d0006e0047000001780061c0b30020c0b30072
:1019e0004cfc070072a5290091c0b30020c0b300d1
:1019f00048fc07009d013700a2c9bf000004e000b9
:101a000005003200c08520008fff0700a04088003d
:101a1000b1408800a269ef00c0a5290060079800c6
:101a20006e0190008040eb0010c0b30039fc07004d
:101a3000a0408000b1408000722f2200a3c5230087
:101a4000800307000c030700000078008000eb0013
:101a500027030700008fbe001e00be00e50207003e
:101a600000007800ee00470032002000fafc07007a
:101a70006e0047000001780061c0b30020c0b300d1
:101a800024fc0700d2a6290091c0b30020c0b300f7
:101a900020fc070075013700a3c9bf000004e00067
:101aa00005003200e088200067ff0700c040880082
:101ab000d1408800a469ef0020a7290060079800a2
:101ac0006e0190008040eb0010c0b30011fc0700d5
:101ad000c0408000d1408000228e250073ed23009d
:101ae00058030700e4020700000078008000eb00c4
:101af000ff020700008fbe001e00be00bd020700ef
:101b000000007800ee00470032002000d2fc070001
:101b10006e0047000001780061c0b30020c0b30030
:101b2000fcfb070072a5290091c0b30020c0b300e0
:101b3000f8fb07004d013700a4c9bf000004e00016
:101b400005003200008c20003fff07006040880045
:101b500071408800a469ef0020a829006007980060
:101b60006e0190008040eb0010c0b300e9fb07005d
:101b70006040800071408000722f2200a3c52300c6
:101b800030030700bc020700000078008000eb0073
:101b9000d7020700008fbe001e00be00950207009e
:101ba00000007800ee00470032002000aafc070089
:101bb0006e0047000001780061c0b30020c0b30090
:101bc000d4fb0700d2a6290091c0b30020c0b30007
:101bd000d0fb070025013700a5c9bf000004e000c5
:101be000050032006095200017ff07004040880084
:101bf00051408800a569ef0020a9290060079800de
:101c00006e0190008040eb0010c0b300c1fb0700e4
:101c10004040800051408000228e280003f02300c5
:101c200008030700940207000000780064004000e9
:101c30008000eb00ae020700008fbe001e00be0059
:101c40006c02070000007800ee0047003200200020
:101c500081fc07006e0047000001780061c0b300fe
:101c600020c0b300abfb070032aa290091c0b3002b
:101c700020c0b300a7fb0700fc003700a6c9bf00c7
:101c80000004e00005003200208f2000eefe070077
:101c90000040880011408800a669ef0080aa290052
:101ca000600798006e0190008040eb0010c0b30008
:101cb00098fb0700004080001140800092bf2d007b
:101cc000e3c12300df0207006b0207000000780079
:101cd0008000eb0086020700008fbe001e00be00e1
:101ce0004402070000007800ee00470032002000a8
:101cf00059fc07006e0047000001780061c0b30086
:101d000020c0b30083fb0700a2ab290091c0b30041
:101d100020c0b3007ffb0700d4003700a7c9bf0075
:101d20000004e0000500320040922000c6fe0700db
:101d30002040880031408800a769ef00f0ab2900ff
:101d4000600798006e0190008040eb0010c0b30067
:101d500070fb0700204080003140800092bf2d00c2
:101d6000e3c12300b7020700430207000000780028
:101d70008000eb005e020700008fbe001e00be0068
:101d80001c02070000007800ee004700320020002f
:101d900031fc07006e0047000001780061c0b3000d
:101da00020c0b3005bfb0700a2ab290091c0b300c9
:101db00020c0b30057fb0700ac00370050ad29002e
:101dc000600798006e0190008040eb0010c0b300e7
:101dd00050fb070072ae290061c0b30020c0b30001
:101de0004cfb0700a1003700f0ae29006007980007
:101df0006e0190008040eb0010c0b30045fb07006f
:101e0000804080009140800022432e0083ee23001a
:101e10008c0207002007980031079800804080005e
:101e200091408000722f2200a3c523008502070085
:101e300040079800510798004e019000de01900085
:101e40002e009000be0090007e0207002007980040
:101e500031079800f226210033a823002e009000bd
:101e6000be00900077020700008fbe006e004700a2
:101e700033002000000178001e00be002afc07008d
:101e80006e0047000001780061c0b30020c0b300bd
:101e900020fb0700f2af290091c0b30020c0b300bf
:101ea0001cfb07007100370040b029006007980054
:101eb0006e0190008040eb0010c0b30015fb0700de
:101ec000c4408000d54080006040800071408000a8
:101ed0000001be000400be005a020700f2262100e5
:101ee00033a8230057020700008fbe006e00470092
:101ef00033002000000178001e00be000afc07002d
:101f00006e0047000001780061c0b30020c0b3003c
:101f100000fb0700f2af290091c0b30020c0b3005e
:101f2000fcfa07005100370052b129008040eb0055
:101f300010c0b300f7fa0700b0168000640060001c
:101f40000000e0002600320098c9bf000004e00055
:101f50000600320062b229008040eb0020c0b300ce
:101f6000ecfa070080bb20001dfe070099c9bf00e6
:101f70000004e0000600320072b329008040eb004c
:101f800020c0b300e3fa070080bb200014fe070066
:101f90009ac9bf000004e0000600320082b42900a4
:101fa0008040eb0020c0b300dafa070080bb2000bd
:101fb0000bfe07009bc9bf000004e00006003200d2
:101fc00092b529008040eb0020c0b300d1fa070091
:101fd00080bb200002fe070080bb200000fe07003f
:101fe000b0168000680060000000e0001e003200b3
:101ff0009dc9bf000004e00006003200a2b629001f
:102000008040eb0020c0b300c2fa070080bb200074
:10201000f3fd07009ec9bf000004e0000600320087
:10202000a2b729008040eb0020c0b300b9fa070036
:1020300080bb2000eafd07009fc9bf000004e0004c
:102040000600320092b829008040eb0020c0b300a7
:10205000b0fa070080bb2000e1fd070080bb200034
:10206000dffd070001003700000000000080fa00db
:10207000000006000000fa00cda2a800c020a800c1
:10208000c420a80085e0a900d1048000f0ff28004a
:10209000808060000000230001007000d0048800f0
:1020a0008de0a9000080fa00000006003600f8006c
:1020b000809fbe00829fbe00849fbe00869fbe00a0
:1020c0000000fa008020a900d642a800c2b9290069
:1020d0008040eb0010c0b3008efa0700c2ba29009e
:1020e0008040eb0020c0b3008afa0700803e200049
:1020f000bbfd0700ffff37003600f800809fbe00e1
:10210000829fbe00849fbe00869fbe000000fa0032
:102110008060a900d642a800c2bb29008040eb0025
:1021200010c0b3007bfa0700d2bc29008040eb004e
:1021300020c0b30077fa0700803e2000a8fd07000a
:10214000ffff37003600f800809fbe00829fbe0070
:10215000849fbe00869fbe000000fa008040a90058
:10216000d642a800c2bb29008040eb0010c0b300db
:1021700068fa0700e2bd29008040eb0020c0b300f0
:1021800064fa0700803e200095fd0700ffff37003e
:102190003600f800809fbe00829fbe00849fbe0074
:1021a000869fbe000000fa008080a900d642a800e9
:1021b000c2bb29008040eb0010c0b30055fa0700f5
:1021c000f2be29008040eb0020c0b30051fa0700a6
:1021d000803e200082fd0700ffff37000040da004c
:1021e0000000fe003200f800910188000008bb00ea
:1021f000410424006210e1000400320000022000cb
:102200000010e1000a003a0051042400013b88005c
:102210000500fc0051052000313b8800a10a200088
:10222000313b880061e7a8000000000000000000ca
:102230003200f900000006003200f80060042400bb
:10224000003b8800f2ff37003200f800910188005f
:1022500041002400013b88000208bb00ecff37006e
:102260003200f8009101880051002400013b8800f1
:10227000030120003218bb008301e900fdff3a0092
:10228000e3ff3700881f78008a1f78004400f800b9
:10229000080f20002802880000049000100590001c
:1022a000a000900030019000c00190000300ca001f
:1022b0000280ca000030cb001a00cd004604c300e3
:1022c0000100ca004604c0001e04c0000605c0008c
:1022d0000100cd0021009800050d7800eaba9700b2
:1022e000052578004400f9004f0578004f04780078
:1022f00000000600801f78004000b0000008eb00de
:102300004f007800801f7800100090000018eb004c
:102310000018eb000008eb004f00780000000600fa
:102320004400f800020f200022028800910078008b
:102330003000ca003080ca000000cb002080ca00f4
:102340000000cb003100cd004000ca000000cb00ef
:102350000000cb000010cb003100cd001180cc007c
:102360004400f900000006000000050003f0a20090
:10237000889fbe008a9fbe008c1f7800190107004d
:10238000200133006450e1004f0032006420e1007e
:102390005200320003826c0007003b000905d000a8
:1023a0000306d000820f54000c065d0002003900c5
:1023b000020032008901780003067800858255000a
:1023c00004003d000003fd008103fd008502ea00da
:1023d0008b854200840f720002003b0060001000f9
:1023e000e08018006011b8000005eb007a28e100d9
:1023f0000a00390006007800c75ddd00f707b2006b
:10240000878075002d003700828171000a017800f5
:10241000610560008180d1000080d3008502e90061
:10242000f9ff3b00060440008784480002003b009f
:1024300060041400e0841c000988a3000700320037
:102440008a81710082817100610164008904d10078
:102450000884d3008b05e800170037000978a30033
:1024600013003a000b00e000130034008b05e90074
:102470000804440089844c000a4474000978a300cd
:102480000d003a000b00e000070034008b05e90066
:102490000804440089844c0001003a000b0020002d
:1024a0000978a300f7ff32000001eb0002003700bb
:1024b000828171000a0178008f0007000cf0a700ec
:1024c00001f0a000d80037006420e10002003a00cb
:1024d000838f6c00d80033000801be000200be00ec
:1024e000d1003700889fbe008a9fbe008c1f7800f5
:1024f000bc000700c300330003866c006450e10099
:102500002e0032006420e100330032006150e1000f
:102510002f0032006120e100310032008585550036
:10252000eb07b00009002000080420000500370078
:102530000804440089844c000a003100060343006b
:1025400087834b000001530081815b00f8ff33005b
:102550000203be000800a0000804440089844c0067
:10256000f6ff3900c639dd00830173000100320037
:10257000130020008904d1000884d3000998a30027
:10258000050032000800a7000300a0008904d10064
:102590000884d3008b05e8008904d1000884d300a7
:1025a0000001eb000281d2005300070001f0a100fe
:1025b0000cf0a70001f0a0009b0037006420e100b0
:1025c0009d0032000801be000200be00f7ff370088
:1025d0006120e100980032006000b800f3ff37008e
:1025e0000000200001f82700f0ff3700f4ff2f0063
:1025f000410237000001be00650007000470a7001b
:1026000003f0a1006509b100160032000d0035008d
:102610006828e10006003500f0ff2f00f1ff2700d9
:102620000300e00013003b0001002800000005004b
:1026300000004000818048008502e900fcff3a006c
:1026400008003700f88f420002003c008000eb00d9
:10265000000005008100d1000080d3008502e80061
:10266000fcff3a000300e00002003b0060001000a5
:10267000e0801800000006000001be0044000700d2
:102680000470a70003f0a10003f8a30013003a00b0
:102690006509b10010003200090035006928e10029
:1026a0000200350001002800000005000000400085
:1026b000818048008502e900fcff3a000000060026
:1026c000f88f4200050035008100d1000080d30062
:1026d0008502e800fcff3a00000006008000eb00e5
:1026e000000005004f89de00820178001f023700dc
:1026f0006011b8002d023700810020006180550074
:102700000b003d000b00200061fe2f000100e100e6
:102710001d00340082817100610164008904d100d0
:102720000884d3000000e800faff3a00710020009e
:1027300061006400030070000200600009003200c4
:1027400061044400e0844c000988a50005003200c3
:102750008b05e8006808e10002003a008904d10016
:102760000884d300f20f20000258e10005003d006c
:10277000c75ddd00f907b2008980750008007800a8
:10278000000006000bf827008b0078000000050011
:10279000c70ade00f107b200f50fb20008003200f0
:1027a000e1cf4200020032000170a00024000500c9
:1027b000810f70000100320004080500440005008c
:1027c000810f700002003a00140005008502e90044
:1027d0000000400081c04800fcff3b000170a000e9
:1027e000240005000004be00e9ff07000003be004e
:1027f0000405be000200be00e5ff0700844f75001f
:10280000000006000200be006450e1000500360032
:102810006420e100020036000968a30001003a00cc
:102820000800be000160a0004f0678004f05be0002
:102830004f04be0000000600f0ff2f00f1ff27004c
:10284000f9ff3700889fbe008a9fbe008c1f78006a
:10285000e4ff0700ebff330003866c006450e100e7
:10286000240032006420e100270032006150e100c2
:10287000220032006120e100210032008b854200fd
:10288000eb07b1000134b800003ab8000804420078
:1028900089844a00013ab8000030b80088804000be
:1028a00009014a0004003300000040008180480014
:1028b000020149008b05e900c909dd0083017000b0
:1028c0000100320013002000c814de004814dd00af
:1028d0004709de001200b200c808de00088470005c
:1028e00085ff070001f0a1000cf0a70001f0a00097
:1028f000cdff37006120e100cfff32000801be00ac
:102900000200be00f7ff37006150e100fcff3a0013
:10291000c9ff37000c00fa00889fbe008a9fbe00e6
:102920008c9fbe00afff07000206be008405780042
:102930000200be00020020004801070005003a0026
:102940008b02b300120020004401070001003a008e
:10295000f8856d000c01be00c60007000800be002f
:102960009b0032000b08a3009e003a000df0a70068
:102970000be0a00009f0a7000bf0a00009f0a100f7
:102980000801be00bb0007000bf0a6009500320056
:1029900001003c000bd0a0008acf7500b2003300cc
:1029a0006000b8006250e10099003900a1003e00cb
:1029b0000b28a300a2003a000bf8a3000600320087
:1029c0000b58a300a70032000801be00a9000700b1
:1029d0000800be00940032000800be00b0000700ee
:1029e0000004be00050578000bf0a7000b30a60020
:1029f0000bf0a1005b079800324f200053f3230037
:102a00005801070005003d000800be00120020002c
:102a1000950107000004be000a05e9004a07980076
:102a20006150b9002fff0700008fbe000c01be00ef
:102a300084ff0700effe0700300798000100e00068
:102a400002003d0060001000e0801800f2ff270047
:102a5000820f5000e08f580064003e000c00be0062
:102a6000e4fe070020079800f2072000820f5000c4
:102a7000e08f580005003c0012f82f00f3ff2f00f4
:102a8000820f5000838f580009003d000a00e000cb
:102a90000300320001003c000201ea000205780058
:102aa0006000b800200798003a0798001900370026
:102ab0003e0090006100b9000aff0700809fbe0041
:102ac0000c00be004109dd004811de007208b100b3
:102ad000e20007000005be001e01be0059ff07000e
:102ae0004f01be0021fe0700809fbe000c00be000b
:102af0000a01be001dfe07001e01be0051ff0700b7
:102b00004f01be001afe07008221270013f32300a5
:102b10004cff07000005be002e0090006100b900c8
:102b2000f0fe070001f0a2000c01be0010fe07003d
:102b30000006be000800be006d0107000c01be00cb
:102b400040ff07000a01be0009fe0700809fbe008b
:102b50004a0007002e0590000af0a7000a05ea00c7
:102b6000050037000800be000801be0035ff070061
:102b70000004be000c00be000801be000a00a70051
:102b800030ff07000006be000a05d100f5ff3a003d
:102b90005e01900002e0a600030037000001be00c5
:102ba000360007004ffe07000004be004f00be00c5
:102bb000480007000801be0022ff07003e01900008
:102bc00029010700de0590000bf0a70001f0a2002c
:102bd0004f06be004f05be004f04be000080fa0045
:102be0000000060025000700f9ff37002700070056
:102bf0006000b8000bd0a7000bc0a0000be0a7003e
:102c00000bc0a2000bc0a70001f82700f0ff37009f
:102c10000df8a300020032001e0007001900070093
:102c20000bf8a300eaff32000b30a70001f0a2006e
:102c3000e7ff37000df8a300f9ff3a00f7ff370070
:102c40000801be000b000700e6ff320001003c0057
:102c50000df0a2006000b8000df0a7000900070009
:102c6000dbff37000b000700f1ff2700f0ff2f000c
:102c7000d7ff370001000700ba00370001f8230032
:102c80000000050001f827000000050020022000d8
:102c90000100370010022000604f8800000006008d
:102ca0000003be00bafe07006220e100020032000d
:102cb0000600be0005000500e507b100f107b200ff
:102cc00004f023008480700007f0a70001f0a0004a
:102cd00024000500889fbe008a9fbe008c9fbe0016
:102ce0000004be00aafe07000800be006420e10048
:102cf00048003e005500320072212700132b2400ab
:102d00003afe070047003c000800be00c2ec280065
:102d1000e32c2c0093000700470035000800be009c
:102d200001f0a10002002000033823008d000700fd
:102d3000430035000800be00b2a32a0083fb230035
:102d4000c0fe07000200200003f0230001f0a700ee
:102d500003f0a00086fd070026fe07000005be0068
:102d600060fe070001f0a2000006be00020028007d
:102d700013f32300b3fe07000801be007cfd07002b
:102d8000809fbe000c00be0032082800e3952b0097
:102d9000acfe07004f01be0075fd07000006be0037
:102da0000001be00a7fe0700809fbe004241250033
:102db00083b82300a3fe07000200200003e82300dd
:102dc0006bfd07000c01be009efe07000006be0062
:102dd0004f00be00f2f92b00c3d4230099fe070078
:102de0000200200003f0230061fd07000c01be007b
:102df0005efd07000001be000c00be00b9fd07002b
:102e00000200200003f0230059fd07006101450086
:102e1000950007004f06be004f05be004f04be00e0
:102e20000000060001f82700000020002202200018
:102e3000624f8800f7ff37006000b800fbff3700e3
:102e400001f8230000002000f2ff370009f8a3007a
:102e5000f0ff32006000b800eeff3700889fbe0030
:102e60008a9fbe000003be0049fe0700850578006a
:102e700082815200020020006220e10004003a003a
:102e8000f307b100040035007718e10004003500b5
:102e90000600be00140037006000b8000f003700c5
:102ea000f50f2000faff2f008502d1000a85d3001c
:102eb0008301e900fcff3b0081846200000465009f
:102ec000890f7400f2ff32008582ea000a85ea0069
:102ed000818462000004650007fe070007f0a70078
:102ee00001f0a0000081eb000200e0004f05be00f1
:102ef0004f04be0000000600889fbe008a9fbe00ef
:102f0000841f780037fe07004f007800110033005f
:102f1000f0ff2f00838f6c0006003b000405650066
:102f20000a00a7000800370009f0a60010002000e2
:102f300008003700820f5400838f5c0003003900c3
:102f40001000200001003e000000200009f0a70052
:102f50000000ea004f05be004f04be000000e00084
:102f60000000060014002000e3ff3700881f7800ef
:102f7000030478000300e00007003d00600010003b
:102f8000e080180060011900e081190002003b0098
:102f900001f02d00030037000400070008f0a7002f
:102fa00001f0a0004f04780000000600889fbe00da
:102fb0008a9fbe00008270000402710004827100ca
:102fc000260032000004be000200be006011b800fe
:102fd0006b092000950220000182cf000a00390011
:102fe0000541b1000082cf00070039000541b10062
:102ff0000982cf00040039000541b1000882cf00ea
:10300000010039000541b1000542520012003200b2
:103010000a003b0082817100610164008100d100df
:103020000080d3008984d3000884d3008b05e80096
:103030000442e800f7ff3a000700370008044400a4
:1030400089844c0000004800818048008b05e9001d
:103050000442e900f9ff3a00a7fd07004f05be0052
:103060004f04be00000006000003be00c8fd0700bc
:103070006220e100020032000600be0000000600ef
:1030800085024100e30f20000328e10005003c0019
:10309000a3fe2f000328e10007003d0005002000eb
:1030a00001003700f50f200020022000604f88004b
:1030b0006000b80008003700130020008381520030
:1030c00005003d008100d1000080d3008301e800ad
:1030d000fcff3a0005002000c72add00f107b2001e
:1030e0008580700007f0a70001f0a0000000060036
:1030f000889fbe008a9fbe008c9fbe00e8fe07002e
:10310000850478000005be006420e10049003e000f
:103110006220e10003003200090035000bf8a30033
:10312000440032000bf8a300080032001002200017
:10313000604f8800f0ff2f00f1ff27003d003700af
:1031400001f82f00000020003a0037003d00070082
:1031500086fc07000006be000a00be00324f2000b9
:1031600053f3230021fd0700060034000c00be00cd
:10317000340007007dfc07000006be000a00be0008
:10318000020037008904e9000c00be002d00070092
:10319000acfd07002b00070075fc07000001be0016
:1031a0000c00be00cffc07000005be000001be0001
:1031b000a4fd07000006be00a2f32300430d2c006f
:1031c0006bfc0700809fbe000c00be00d2e327000e
:1031d000d3f02b009bfd07004f01be00c1fc070090
:1031e0000006be000a01be0096fd07000a01be00ef
:1031f0005ffc07000006be006148b90039fd07000a
:103200000005be0032082800e3952b008dfd070065
:103210000c01be0056fc07000006be000a00be00fe
:103220000200280013f3230086fd07000c01be00f6
:103230004ffc07004f06be004f05be004f04be0006
:0c3240000000060003f02300020005005f
:020000040000fa
:10324c0090010000f501000059020000bd020000d1
:10325c002103000085030000e80300004b0400007c
:10326c00ae0400001005000071050000d20500003e
:10327c003206000091060000ef0600004d0700002a
:10328c00a9070000040800005f080000b80800004f
:10329c001009000067090000bd090000110a0000b8
:1032ac00640a0000b60a0000060b0000550b000073
:1032bc00a20b0000ed0b0000370c00007f0c00008f
:1032cc00c50c0000090d00004c0d00008d0d000018
:1032dc00cc0d0000090e0000440e00007d0e000015
:1032ec00b30e0000e80e00001b0f00004b0f000097
:1032fc007a0f0000a60f0000d00f0000f70f00009f
:10330c001d10000040100000611000007f10000034
:10331c009b100000b5100000cc100000e110000064
:10332c00f310000003110000111100001c1100002b
:10333c00241100002b1100002e1100003011000090
:10334c002e1100002b110000241100001c11000094
:10335c001111000003110000f3100000e110000037
:10336c00cc100000b51000009b1000007f10000076
:10337c0061100000401000001d100000f70f00004d
:10338c00d00f0000a60f00007a0f00004b0f0000ba
:10339c001b0f0000e80e0000b30e00007d0e0000b5
:1033ac00440e0000090e0000cc0d00008d0d000035
:1033bc004c0d0000090d0000c50c00007f0c000036
:1033cc00370c0000ed0b0000a20b0000550b0000a9
:1033dc00060b0000b60a0000640a0000110a000087
:1033ec00bd0900006709000010090000b8080000c2
:1033fc005f08000004080000a90700004d0700004a
:10340c00ef0600009106000032060000d205000015
:10341c007105000010050000ae0400004b04000014
:10342c00e80300008503000021030000bd0200003a
:10343c0059020000f5010000900100002c01000071
:10344c0054520000414e000053540000454300000c
:10345c00482000005359000053540000454d000013
:10346c000020000020200000202000002020000070
:10347c002020000020200000202000002000000060
:10348c004f550000545000005554000020560000c9
:10349c004f4c000054410000474500003a2000000a
:1034ac000020000056410000430000004f55000072
:1034bc0054500000555400002043000055520000a9
:1034cc00524500004e5400003a200000002000003d
:1034dc0049410000430000004d410000494e0000ee
:1034ec0053200000564f00004c5400004147000090
:1034fc00453a0000200000004d410000494e0000fc
:10350c00532000004355000052520000454e00006d
:10351c00543a0000200000004241000054540000c6
:10352c004552000059200000564f00004c5400003a
:10353c0041470000453a00000020000056440000be
:10354c0043000000424100005420000043480000aa
:10355c00415200002043000055520000524500002b
:10356c004e5400003a000000204900004443000083
:10357c000042000041540000542000004449000067
:10358c005343000048410000522000004355000006
:10359c0052520000454e0000543a0000004f00000b
:1035ac0055540000505500005420000046520000b5
:1035bc0045510000554500004e430000593a0000ab
:1035cc0000340000392e000039200000487a000039
:1035dc0000200000204f0000555400005055000002
:1035ec0054200000504f00005745000052200000ae
:1035fc00002000004b56000041000000202000007d
:10360c00204900004e50000055540000205000008e
:10361c004f57000045520000202000000020000001
:10362c002020000020200000204600004155000012
:10363c004c5400002020000020200000200000003e
:10364c004849000047480000204f00002f50000060
:10365c00205600004f4c000054410000474500002c
:10366c00004c00004f570000204f00002f5000006e
:10367c00205600004f4c000054410000474500000c
:10368c00200000004849000047480000204f00007f
:10369c002f500000204300005552000052450000fe
:1036ac004e54000000200000202000004241000089
:1036bc005454000045520000592000004c4f0000ab
:1036cc0057200000200000004d410000494e000032
:1036dc0053200000564f00004c54000020480000be
:1036ec0049470000480000004d410000494e0000d1
:1036fc0053200000564f00004c540000204c00009a
:10370c004f570000004d0000414900004e5300008f
:10371c002043000055520000524500004e5400005a
:10372c0020480000494700004800000044530000b6
:10373c005020000045720000726f000072200000e3
:10374c002020000020200000200000004f6300001b
:10375c00696c00006c610000746f00007246000020
:10376c00616900006c200000200000004453000040
:10377c005020000045720000726f000072200000a3
:10378c00202000002020000020200000004100002c
:10379c0064720000657300007345000072720000d3
:1037ac006f7200002020000020200000200000008c
:1037bc0053740000616300006b45000072720000de
:1037cc006f7200002020000020200000202000004c
:1037dc00004d00006174000068450000727200002a
:1037ec006f7200002020000020200000202000002c
:0437fc0020000000a9
:020000040000fa
:1038000000080000e201000000000000e8090000dc
:10381000040000000200000021020100000000007e
:10382000e20900000600000000000000fa0f00009e
:103830000600000000000000ec090000020000008b
:08384000000000000000000080
:020000040000fa
:0200000401f009
:04000000f7bf000046
:020000040000fa
:0200000401f009
:04000400ff7f00007a
:020000040000fa
:0200000401f009
:04000800fffb0000fa
:020000040000fa
:0200000401f009
:04001400ffff0000ea
:020000040000fa
:0200000401f009
:04001800ffff0000e6
:00000001FF
